{
  "_format": "hh-sol-artifact-1",
  "contractName": "ChickFillets",
  "sourceName": "contracts/cfaNFT.sol",
  "abi": [
    {
      "inputs": [],
      "stateMutability": "nonpayable",
      "type": "constructor"
    },
    {
      "anonymous": false,
      "inputs": [
        {
          "indexed": true,
          "internalType": "address",
          "name": "owner",
          "type": "address"
        },
        {
          "indexed": true,
          "internalType": "address",
          "name": "approved",
          "type": "address"
        },
        {
          "indexed": true,
          "internalType": "uint256",
          "name": "tokenId",
          "type": "uint256"
        }
      ],
      "name": "Approval",
      "type": "event"
    },
    {
      "anonymous": false,
      "inputs": [
        {
          "indexed": true,
          "internalType": "address",
          "name": "owner",
          "type": "address"
        },
        {
          "indexed": true,
          "internalType": "address",
          "name": "operator",
          "type": "address"
        },
        {
          "indexed": false,
          "internalType": "bool",
          "name": "approved",
          "type": "bool"
        }
      ],
      "name": "ApprovalForAll",
      "type": "event"
    },
    {
      "anonymous": false,
      "inputs": [
        {
          "indexed": true,
          "internalType": "address",
          "name": "previousOwner",
          "type": "address"
        },
        {
          "indexed": true,
          "internalType": "address",
          "name": "newOwner",
          "type": "address"
        }
      ],
      "name": "OwnershipTransferred",
      "type": "event"
    },
    {
      "anonymous": false,
      "inputs": [
        {
          "indexed": true,
          "internalType": "address",
          "name": "from",
          "type": "address"
        },
        {
          "indexed": true,
          "internalType": "address",
          "name": "to",
          "type": "address"
        },
        {
          "indexed": true,
          "internalType": "uint256",
          "name": "tokenId",
          "type": "uint256"
        }
      ],
      "name": "Transfer",
      "type": "event"
    },
    {
      "inputs": [
        {
          "internalType": "address",
          "name": "to",
          "type": "address"
        },
        {
          "internalType": "uint256",
          "name": "tokenId",
          "type": "uint256"
        }
      ],
      "name": "approve",
      "outputs": [],
      "stateMutability": "nonpayable",
      "type": "function"
    },
    {
      "inputs": [
        {
          "internalType": "address",
          "name": "owner",
          "type": "address"
        }
      ],
      "name": "balanceOf",
      "outputs": [
        {
          "internalType": "uint256",
          "name": "",
          "type": "uint256"
        }
      ],
      "stateMutability": "view",
      "type": "function"
    },
    {
      "inputs": [],
      "name": "count",
      "outputs": [
        {
          "internalType": "uint256",
          "name": "",
          "type": "uint256"
        }
      ],
      "stateMutability": "view",
      "type": "function"
    },
    {
      "inputs": [
        {
          "internalType": "uint256",
          "name": "tokenId",
          "type": "uint256"
        }
      ],
      "name": "getApproved",
      "outputs": [
        {
          "internalType": "address",
          "name": "",
          "type": "address"
        }
      ],
      "stateMutability": "view",
      "type": "function"
    },
    {
      "inputs": [
        {
          "internalType": "address",
          "name": "owner",
          "type": "address"
        },
        {
          "internalType": "address",
          "name": "operator",
          "type": "address"
        }
      ],
      "name": "isApprovedForAll",
      "outputs": [
        {
          "internalType": "bool",
          "name": "",
          "type": "bool"
        }
      ],
      "stateMutability": "view",
      "type": "function"
    },
    {
      "inputs": [
        {
          "internalType": "string",
          "name": "uri",
          "type": "string"
        }
      ],
      "name": "isContentOwned",
      "outputs": [
        {
          "internalType": "bool",
          "name": "",
          "type": "bool"
        }
      ],
      "stateMutability": "view",
      "type": "function"
    },
    {
      "inputs": [],
      "name": "name",
      "outputs": [
        {
          "internalType": "string",
          "name": "",
          "type": "string"
        }
      ],
      "stateMutability": "view",
      "type": "function"
    },
    {
      "inputs": [],
      "name": "owner",
      "outputs": [
        {
          "internalType": "address",
          "name": "",
          "type": "address"
        }
      ],
      "stateMutability": "view",
      "type": "function"
    },
    {
      "inputs": [
        {
          "internalType": "uint256",
          "name": "tokenId",
          "type": "uint256"
        }
      ],
      "name": "ownerOf",
      "outputs": [
        {
          "internalType": "address",
          "name": "",
          "type": "address"
        }
      ],
      "stateMutability": "view",
      "type": "function"
    },
    {
      "inputs": [
        {
          "internalType": "address",
          "name": "recipient",
          "type": "address"
        },
        {
          "internalType": "string",
          "name": "metadataURI",
          "type": "string"
        }
      ],
      "name": "payToMint",
      "outputs": [
        {
          "internalType": "uint256",
          "name": "",
          "type": "uint256"
        }
      ],
      "stateMutability": "payable",
      "type": "function"
    },
    {
      "inputs": [],
      "name": "renounceOwnership",
      "outputs": [],
      "stateMutability": "nonpayable",
      "type": "function"
    },
    {
      "inputs": [
        {
          "internalType": "address",
          "name": "to",
          "type": "address"
        },
        {
          "internalType": "string",
          "name": "uri",
          "type": "string"
        }
      ],
      "name": "safeMint",
      "outputs": [],
      "stateMutability": "nonpayable",
      "type": "function"
    },
    {
      "inputs": [
        {
          "internalType": "address",
          "name": "from",
          "type": "address"
        },
        {
          "internalType": "address",
          "name": "to",
          "type": "address"
        },
        {
          "internalType": "uint256",
          "name": "tokenId",
          "type": "uint256"
        }
      ],
      "name": "safeTransferFrom",
      "outputs": [],
      "stateMutability": "nonpayable",
      "type": "function"
    },
    {
      "inputs": [
        {
          "internalType": "address",
          "name": "from",
          "type": "address"
        },
        {
          "internalType": "address",
          "name": "to",
          "type": "address"
        },
        {
          "internalType": "uint256",
          "name": "tokenId",
          "type": "uint256"
        },
        {
          "internalType": "bytes",
          "name": "_data",
          "type": "bytes"
        }
      ],
      "name": "safeTransferFrom",
      "outputs": [],
      "stateMutability": "nonpayable",
      "type": "function"
    },
    {
      "inputs": [
        {
          "internalType": "address",
          "name": "operator",
          "type": "address"
        },
        {
          "internalType": "bool",
          "name": "approved",
          "type": "bool"
        }
      ],
      "name": "setApprovalForAll",
      "outputs": [],
      "stateMutability": "nonpayable",
      "type": "function"
    },
    {
      "inputs": [
        {
          "internalType": "bytes4",
          "name": "interfaceId",
          "type": "bytes4"
        }
      ],
      "name": "supportsInterface",
      "outputs": [
        {
          "internalType": "bool",
          "name": "",
          "type": "bool"
        }
      ],
      "stateMutability": "view",
      "type": "function"
    },
    {
      "inputs": [],
      "name": "symbol",
      "outputs": [
        {
          "internalType": "string",
          "name": "",
          "type": "string"
        }
      ],
      "stateMutability": "view",
      "type": "function"
    },
    {
      "inputs": [
        {
          "internalType": "uint256",
          "name": "tokenId",
          "type": "uint256"
        }
      ],
      "name": "tokenURI",
      "outputs": [
        {
          "internalType": "string",
          "name": "",
          "type": "string"
        }
      ],
      "stateMutability": "view",
      "type": "function"
    },
    {
      "inputs": [
        {
          "internalType": "address",
          "name": "from",
          "type": "address"
        },
        {
          "internalType": "address",
          "name": "to",
          "type": "address"
        },
        {
          "internalType": "uint256",
          "name": "tokenId",
          "type": "uint256"
        }
      ],
      "name": "transferFrom",
      "outputs": [],
      "stateMutability": "nonpayable",
      "type": "function"
    },
    {
      "inputs": [
        {
          "internalType": "address",
          "name": "newOwner",
          "type": "address"
        }
      ],
      "name": "transferOwnership",
      "outputs": [],
      "stateMutability": "nonpayable",
      "type": "function"
    }
  ],
  "bytecode": "0x60806040523480156200001157600080fd5b506040518060400160405280600c81526020017f436869636b46696c6c65747300000000000000000000000000000000000000008152506040518060400160405280600381526020017f4346410000000000000000000000000000000000000000000000000000000000815250816000908051906020019062000096929190620001a6565b508060019080519060200190620000af929190620001a6565b505050620000d2620000c6620000d860201b60201c565b620000e060201b60201c565b620002bb565b600033905090565b6000600760009054906101000a900473ffffffffffffffffffffffffffffffffffffffff16905081600760006101000a81548173ffffffffffffffffffffffffffffffffffffffff021916908373ffffffffffffffffffffffffffffffffffffffff1602179055508173ffffffffffffffffffffffffffffffffffffffff168173ffffffffffffffffffffffffffffffffffffffff167f8be0079c531659141344cd1fd0a4f28419497f9722a3daafe3b4186f6b6457e060405160405180910390a35050565b828054620001b49062000256565b90600052602060002090601f016020900481019282620001d8576000855562000224565b82601f10620001f357805160ff191683800117855562000224565b8280016001018555821562000224579182015b828111156200022357825182559160200191906001019062000206565b5b50905062000233919062000237565b5090565b5b808211156200025257600081600090555060010162000238565b5090565b600060028204905060018216806200026f57607f821691505b602082108114156200028657620002856200028c565b5b50919050565b7f4e487b7100000000000000000000000000000000000000000000000000000000600052602260045260246000fd5b61350080620002cb6000396000f3fe60806040526004361061011f5760003560e01c8063715018a6116100a0578063b88d4fde11610064578063b88d4fde146103ec578063c87b56dd14610415578063d204c45e14610452578063e985e9c51461047b578063f2fde38b146104b85761011f565b8063715018a6146103195780638da5cb5b1461033057806395d89b411461035b5780639f1cabc614610386578063a22cb465146103c35761011f565b806323b872dd116100e757806323b872dd1461021d57806342842e0e14610246578063615fd9e21461026f5780636352211e1461029f57806370a08231146102dc5761011f565b806301ffc9a71461012457806306661abd1461016157806306fdde031461018c578063081812fc146101b7578063095ea7b3146101f4575b600080fd5b34801561013057600080fd5b5061014b6004803603810190610146919061234a565b6104e1565b6040516101589190612834565b60405180910390f35b34801561016d57600080fd5b506101766105c3565b6040516101839190612af1565b60405180910390f35b34801561019857600080fd5b506101a16105d4565b6040516101ae919061284f565b60405180910390f35b3480156101c357600080fd5b506101de60048036038101906101d991906123dd565b610666565b6040516101eb91906127cd565b60405180910390f35b34801561020057600080fd5b5061021b6004803603810190610216919061230e565b6106eb565b005b34801561022957600080fd5b50610244600480360381019061023f91906121b4565b610803565b005b34801561025257600080fd5b5061026d600480360381019061026891906121b4565b610863565b005b610289600480360381019061028491906122ba565b610883565b6040516102969190612af1565b60405180910390f35b3480156102ab57600080fd5b506102c660048036038101906102c191906123dd565b6109af565b6040516102d391906127cd565b60405180910390f35b3480156102e857600080fd5b5061030360048036038101906102fe919061214f565b610a61565b6040516103109190612af1565b60405180910390f35b34801561032557600080fd5b5061032e610b19565b005b34801561033c57600080fd5b50610345610ba1565b60405161035291906127cd565b60405180910390f35b34801561036757600080fd5b50610370610bcb565b60405161037d919061284f565b60405180910390f35b34801561039257600080fd5b506103ad60048036038101906103a8919061239c565b610c5d565b6040516103ba9190612834565b60405180910390f35b3480156103cf57600080fd5b506103ea60048036038101906103e5919061227e565b610c98565b005b3480156103f857600080fd5b50610413600480360381019061040e9190612203565b610cae565b005b34801561042157600080fd5b5061043c600480360381019061043791906123dd565b610d10565b604051610449919061284f565b60405180910390f35b34801561045e57600080fd5b50610479600480360381019061047491906122ba565b610d22565b005b34801561048757600080fd5b506104a2600480360381019061049d9190612178565b610e07565b6040516104af9190612834565b60405180910390f35b3480156104c457600080fd5b506104df60048036038101906104da919061214f565b610e9b565b005b60007f80ac58cd000000000000000000000000000000000000000000000000000000007bffffffffffffffffffffffffffffffffffffffffffffffffffffffff1916827bffffffffffffffffffffffffffffffffffffffffffffffffffffffff191614806105ac57507f5b5e139f000000000000000000000000000000000000000000000000000000007bffffffffffffffffffffffffffffffffffffffffffffffffffffffff1916827bffffffffffffffffffffffffffffffffffffffffffffffffffffffff1916145b806105bc57506105bb82610f93565b5b9050919050565b60006105cf6008610ffd565b905090565b6060600080546105e390612d47565b80601f016020809104026020016040519081016040528092919081815260200182805461060f90612d47565b801561065c5780601f106106315761010080835404028352916020019161065c565b820191906000526020600020905b81548152906001019060200180831161063f57829003601f168201915b5050505050905090565b60006106718261100b565b6106b0576040517f08c379a00000000000000000000000000000000000000000000000000000000081526004016106a790612a11565b60405180910390fd5b6004600083815260200190815260200160002060009054906101000a900473ffffffffffffffffffffffffffffffffffffffff169050919050565b60006106f6826109af565b90508073ffffffffffffffffffffffffffffffffffffffff168373ffffffffffffffffffffffffffffffffffffffff161415610767576040517f08c379a000000000000000000000000000000000000000000000000000000000815260040161075e90612a71565b60405180910390fd5b8073ffffffffffffffffffffffffffffffffffffffff16610786611077565b73ffffffffffffffffffffffffffffffffffffffff1614806107b557506107b4816107af611077565b610e07565b5b6107f4576040517f08c379a00000000000000000000000000000000000000000000000000000000081526004016107eb90612951565b60405180910390fd5b6107fe838361107f565b505050565b61081461080e611077565b82611138565b610853576040517f08c379a000000000000000000000000000000000000000000000000000000000815260040161084a90612a91565b60405180910390fd5b61085e838383611216565b505050565b61087e83838360405180602001604052806000815250610cae565b505050565b600060016009836040516108979190612792565b908152602001604051809103902060009054906101000a900460ff1660ff1614156108f7576040517f08c379a00000000000000000000000000000000000000000000000000000000081526004016108ee90612ab1565b60405180910390fd5b66b1a2bc2ec50000341015610941576040517f08c379a000000000000000000000000000000000000000000000000000000000815260040161093890612ad1565b60405180910390fd5b600061094d6008610ffd565b9050610959600861147d565b600160098460405161096b9190612792565b908152602001604051809103902060006101000a81548160ff021916908360ff16021790555061099b8482611493565b6109a5818461166d565b8091505092915050565b6000806002600084815260200190815260200160002060009054906101000a900473ffffffffffffffffffffffffffffffffffffffff169050600073ffffffffffffffffffffffffffffffffffffffff168173ffffffffffffffffffffffffffffffffffffffff161415610a58576040517f08c379a0000000000000000000000000000000000000000000000000000000008152600401610a4f90612991565b60405180910390fd5b80915050919050565b60008073ffffffffffffffffffffffffffffffffffffffff168273ffffffffffffffffffffffffffffffffffffffff161415610ad2576040517f08c379a0000000000000000000000000000000000000000000000000000000008152600401610ac990612971565b60405180910390fd5b600360008373ffffffffffffffffffffffffffffffffffffffff1673ffffffffffffffffffffffffffffffffffffffff168152602001908152602001600020549050919050565b610b21611077565b73ffffffffffffffffffffffffffffffffffffffff16610b3f610ba1565b73ffffffffffffffffffffffffffffffffffffffff1614610b95576040517f08c379a0000000000000000000000000000000000000000000000000000000008152600401610b8c90612a31565b60405180910390fd5b610b9f60006116e1565b565b6000600760009054906101000a900473ffffffffffffffffffffffffffffffffffffffff16905090565b606060018054610bda90612d47565b80601f0160208091040260200160405190810160405280929190818152602001828054610c0690612d47565b8015610c535780601f10610c2857610100808354040283529160200191610c53565b820191906000526020600020905b815481529060010190602001808311610c3657829003601f168201915b5050505050905090565b60006001600983604051610c719190612792565b908152602001604051809103902060009054906101000a900460ff1660ff16149050919050565b610caa610ca3611077565b83836117a7565b5050565b610cbf610cb9611077565b83611138565b610cfe576040517f08c379a0000000000000000000000000000000000000000000000000000000008152600401610cf590612a91565b60405180910390fd5b610d0a84848484611914565b50505050565b6060610d1b82611970565b9050919050565b610d2a611077565b73ffffffffffffffffffffffffffffffffffffffff16610d48610ba1565b73ffffffffffffffffffffffffffffffffffffffff1614610d9e576040517f08c379a0000000000000000000000000000000000000000000000000000000008152600401610d9590612a31565b60405180910390fd5b6000610daa6008610ffd565b9050610db6600861147d565b610dc08382611ac2565b610dca818361166d565b6001600983604051610ddc9190612792565b908152602001604051809103902060006101000a81548160ff021916908360ff160217905550505050565b6000600560008473ffffffffffffffffffffffffffffffffffffffff1673ffffffffffffffffffffffffffffffffffffffff16815260200190815260200160002060008373ffffffffffffffffffffffffffffffffffffffff1673ffffffffffffffffffffffffffffffffffffffff16815260200190815260200160002060009054906101000a900460ff16905092915050565b610ea3611077565b73ffffffffffffffffffffffffffffffffffffffff16610ec1610ba1565b73ffffffffffffffffffffffffffffffffffffffff1614610f17576040517f08c379a0000000000000000000000000000000000000000000000000000000008152600401610f0e90612a31565b60405180910390fd5b600073ffffffffffffffffffffffffffffffffffffffff168173ffffffffffffffffffffffffffffffffffffffff161415610f87576040517f08c379a0000000000000000000000000000000000000000000000000000000008152600401610f7e90612891565b60405180910390fd5b610f90816116e1565b50565b60007f01ffc9a7000000000000000000000000000000000000000000000000000000007bffffffffffffffffffffffffffffffffffffffffffffffffffffffff1916827bffffffffffffffffffffffffffffffffffffffffffffffffffffffff1916149050919050565b600081600001549050919050565b60008073ffffffffffffffffffffffffffffffffffffffff166002600084815260200190815260200160002060009054906101000a900473ffffffffffffffffffffffffffffffffffffffff1673ffffffffffffffffffffffffffffffffffffffff1614159050919050565b600033905090565b816004600083815260200190815260200160002060006101000a81548173ffffffffffffffffffffffffffffffffffffffff021916908373ffffffffffffffffffffffffffffffffffffffff160217905550808273ffffffffffffffffffffffffffffffffffffffff166110f2836109af565b73ffffffffffffffffffffffffffffffffffffffff167f8c5be1e5ebec7d5bd14f71427d1e84f3dd0314c0f7b2291e5b200ac8c7c3b92560405160405180910390a45050565b60006111438261100b565b611182576040517f08c379a000000000000000000000000000000000000000000000000000000000815260040161117990612931565b60405180910390fd5b600061118d836109af565b90508073ffffffffffffffffffffffffffffffffffffffff168473ffffffffffffffffffffffffffffffffffffffff1614806111fc57508373ffffffffffffffffffffffffffffffffffffffff166111e484610666565b73ffffffffffffffffffffffffffffffffffffffff16145b8061120d575061120c8185610e07565b5b91505092915050565b8273ffffffffffffffffffffffffffffffffffffffff16611236826109af565b73ffffffffffffffffffffffffffffffffffffffff161461128c576040517f08c379a0000000000000000000000000000000000000000000000000000000008152600401611283906128b1565b60405180910390fd5b600073ffffffffffffffffffffffffffffffffffffffff168273ffffffffffffffffffffffffffffffffffffffff1614156112fc576040517f08c379a00000000000000000000000000000000000000000000000000000000081526004016112f3906128f1565b60405180910390fd5b611307838383611ae0565b61131260008261107f565b6001600360008573ffffffffffffffffffffffffffffffffffffffff1673ffffffffffffffffffffffffffffffffffffffff16815260200190815260200160002060008282546113629190612c5d565b925050819055506001600360008473ffffffffffffffffffffffffffffffffffffffff1673ffffffffffffffffffffffffffffffffffffffff16815260200190815260200160002060008282546113b99190612bd6565b92505081905550816002600083815260200190815260200160002060006101000a81548173ffffffffffffffffffffffffffffffffffffffff021916908373ffffffffffffffffffffffffffffffffffffffff160217905550808273ffffffffffffffffffffffffffffffffffffffff168473ffffffffffffffffffffffffffffffffffffffff167fddf252ad1be2c89b69c2b068fc378daa952ba7f163c4a11628f55a4df523b3ef60405160405180910390a4611478838383611ae5565b505050565b6001816000016000828254019250508190555050565b600073ffffffffffffffffffffffffffffffffffffffff168273ffffffffffffffffffffffffffffffffffffffff161415611503576040517f08c379a00000000000000000000000000000000000000000000000000000000081526004016114fa906129d1565b60405180910390fd5b61150c8161100b565b1561154c576040517f08c379a0000000000000000000000000000000000000000000000000000000008152600401611543906128d1565b60405180910390fd5b61155860008383611ae0565b6001600360008473ffffffffffffffffffffffffffffffffffffffff1673ffffffffffffffffffffffffffffffffffffffff16815260200190815260200160002060008282546115a89190612bd6565b92505081905550816002600083815260200190815260200160002060006101000a81548173ffffffffffffffffffffffffffffffffffffffff021916908373ffffffffffffffffffffffffffffffffffffffff160217905550808273ffffffffffffffffffffffffffffffffffffffff16600073ffffffffffffffffffffffffffffffffffffffff167fddf252ad1be2c89b69c2b068fc378daa952ba7f163c4a11628f55a4df523b3ef60405160405180910390a461166960008383611ae5565b5050565b6116768261100b565b6116b5576040517f08c379a00000000000000000000000000000000000000000000000000000000081526004016116ac906129b1565b60405180910390fd5b806006600084815260200190815260200160002090805190602001906116dc929190611f73565b505050565b6000600760009054906101000a900473ffffffffffffffffffffffffffffffffffffffff16905081600760006101000a81548173ffffffffffffffffffffffffffffffffffffffff021916908373ffffffffffffffffffffffffffffffffffffffff1602179055508173ffffffffffffffffffffffffffffffffffffffff168173ffffffffffffffffffffffffffffffffffffffff167f8be0079c531659141344cd1fd0a4f28419497f9722a3daafe3b4186f6b6457e060405160405180910390a35050565b8173ffffffffffffffffffffffffffffffffffffffff168373ffffffffffffffffffffffffffffffffffffffff161415611816576040517f08c379a000000000000000000000000000000000000000000000000000000000815260040161180d90612911565b60405180910390fd5b80600560008573ffffffffffffffffffffffffffffffffffffffff1673ffffffffffffffffffffffffffffffffffffffff16815260200190815260200160002060008473ffffffffffffffffffffffffffffffffffffffff1673ffffffffffffffffffffffffffffffffffffffff16815260200190815260200160002060006101000a81548160ff0219169083151502179055508173ffffffffffffffffffffffffffffffffffffffff168373ffffffffffffffffffffffffffffffffffffffff167f17307eab39ab6107e8899845ad3d59bd9653f200f220920489ca2b5937696c31836040516119079190612834565b60405180910390a3505050565b61191f848484611216565b61192b84848484611aea565b61196a576040517f08c379a000000000000000000000000000000000000000000000000000000000815260040161196190612871565b60405180910390fd5b50505050565b606061197b8261100b565b6119ba576040517f08c379a00000000000000000000000000000000000000000000000000000000081526004016119b1906129f1565b60405180910390fd5b60006006600084815260200190815260200160002080546119da90612d47565b80601f0160208091040260200160405190810160405280929190818152602001828054611a0690612d47565b8015611a535780601f10611a2857610100808354040283529160200191611a53565b820191906000526020600020905b815481529060010190602001808311611a3657829003601f168201915b505050505090506000611a64611c81565b9050600081511415611a7a578192505050611abd565b600082511115611aaf578082604051602001611a979291906127a9565b60405160208183030381529060405292505050611abd565b611ab884611ca1565b925050505b919050565b611adc828260405180602001604052806000815250611d48565b5050565b505050565b505050565b6000611b0b8473ffffffffffffffffffffffffffffffffffffffff16611da3565b15611c74578373ffffffffffffffffffffffffffffffffffffffff1663150b7a02611b34611077565b8786866040518563ffffffff1660e01b8152600401611b5694939291906127e8565b602060405180830381600087803b158015611b7057600080fd5b505af1925050508015611ba157506040513d601f19601f82011682018060405250810190611b9e9190612373565b60015b611c24573d8060008114611bd1576040519150601f19603f3d011682016040523d82523d6000602084013e611bd6565b606091505b50600081511415611c1c576040517f08c379a0000000000000000000000000000000000000000000000000000000008152600401611c1390612871565b60405180910390fd5b805181602001fd5b63150b7a0260e01b7bffffffffffffffffffffffffffffffffffffffffffffffffffffffff1916817bffffffffffffffffffffffffffffffffffffffffffffffffffffffff191614915050611c79565b600190505b949350505050565b606060405180606001604052806035815260200161349660359139905090565b6060611cac8261100b565b611ceb576040517f08c379a0000000000000000000000000000000000000000000000000000000008152600401611ce290612a51565b60405180910390fd5b6000611cf5611c81565b90506000815111611d155760405180602001604052806000815250611d40565b80611d1f84611dc6565b604051602001611d309291906127a9565b6040516020818303038152906040525b915050919050565b611d528383611493565b611d5f6000848484611aea565b611d9e576040517f08c379a0000000000000000000000000000000000000000000000000000000008152600401611d9590612871565b60405180910390fd5b505050565b6000808273ffffffffffffffffffffffffffffffffffffffff163b119050919050565b60606000821415611e0e576040518060400160405280600181526020017f30000000000000000000000000000000000000000000000000000000000000008152509050611f6e565b600082905060005b60008214611e40578080611e2990612daa565b915050600a82611e399190612c2c565b9150611e16565b60008167ffffffffffffffff811115611e82577f4e487b7100000000000000000000000000000000000000000000000000000000600052604160045260246000fd5b6040519080825280601f01601f191660200182016040528015611eb45781602001600182028036833780820191505090505b5090505b60008514611f6757600182611ecd9190612c5d565b9150600a85611edc9190612df3565b6030611ee89190612bd6565b60f81b818381518110611f24577f4e487b7100000000000000000000000000000000000000000000000000000000600052603260045260246000fd5b60200101907effffffffffffffffffffffffffffffffffffffffffffffffffffffffffffff1916908160001a905350600a85611f609190612c2c565b9450611eb8565b8093505050505b919050565b828054611f7f90612d47565b90600052602060002090601f016020900481019282611fa15760008555611fe8565b82601f10611fba57805160ff1916838001178555611fe8565b82800160010185558215611fe8579182015b82811115611fe7578251825591602001919060010190611fcc565b5b509050611ff59190611ff9565b5090565b5b80821115612012576000816000905550600101611ffa565b5090565b600061202961202484612b31565b612b0c565b90508281526020810184848401111561204157600080fd5b61204c848285612d05565b509392505050565b600061206761206284612b62565b612b0c565b90508281526020810184848401111561207f57600080fd5b61208a848285612d05565b509392505050565b6000813590506120a181613439565b92915050565b6000813590506120b681613450565b92915050565b6000813590506120cb81613467565b92915050565b6000815190506120e081613467565b92915050565b600082601f8301126120f757600080fd5b8135612107848260208601612016565b91505092915050565b600082601f83011261212157600080fd5b8135612131848260208601612054565b91505092915050565b6000813590506121498161347e565b92915050565b60006020828403121561216157600080fd5b600061216f84828501612092565b91505092915050565b6000806040838503121561218b57600080fd5b600061219985828601612092565b92505060206121aa85828601612092565b9150509250929050565b6000806000606084860312156121c957600080fd5b60006121d786828701612092565b93505060206121e886828701612092565b92505060406121f98682870161213a565b9150509250925092565b6000806000806080858703121561221957600080fd5b600061222787828801612092565b945050602061223887828801612092565b93505060406122498782880161213a565b925050606085013567ffffffffffffffff81111561226657600080fd5b612272878288016120e6565b91505092959194509250565b6000806040838503121561229157600080fd5b600061229f85828601612092565b92505060206122b0858286016120a7565b9150509250929050565b600080604083850312156122cd57600080fd5b60006122db85828601612092565b925050602083013567ffffffffffffffff8111156122f857600080fd5b61230485828601612110565b9150509250929050565b6000806040838503121561232157600080fd5b600061232f85828601612092565b92505060206123408582860161213a565b9150509250929050565b60006020828403121561235c57600080fd5b600061236a848285016120bc565b91505092915050565b60006020828403121561238557600080fd5b6000612393848285016120d1565b91505092915050565b6000602082840312156123ae57600080fd5b600082013567ffffffffffffffff8111156123c857600080fd5b6123d484828501612110565b91505092915050565b6000602082840312156123ef57600080fd5b60006123fd8482850161213a565b91505092915050565b61240f81612c91565b82525050565b61241e81612ca3565b82525050565b600061242f82612b93565b6124398185612ba9565b9350612449818560208601612d14565b61245281612ee0565b840191505092915050565b600061246882612b9e565b6124728185612bba565b9350612482818560208601612d14565b61248b81612ee0565b840191505092915050565b60006124a182612b9e565b6124ab8185612bcb565b93506124bb818560208601612d14565b80840191505092915050565b60006124d4603283612bba565b91506124df82612ef1565b604082019050919050565b60006124f7602683612bba565b915061250282612f40565b604082019050919050565b600061251a602583612bba565b915061252582612f8f565b604082019050919050565b600061253d601c83612bba565b915061254882612fde565b602082019050919050565b6000612560602483612bba565b915061256b82613007565b604082019050919050565b6000612583601983612bba565b915061258e82613056565b602082019050919050565b60006125a6602c83612bba565b91506125b18261307f565b604082019050919050565b60006125c9603883612bba565b91506125d4826130ce565b604082019050919050565b60006125ec602a83612bba565b91506125f78261311d565b604082019050919050565b600061260f602983612bba565b915061261a8261316c565b604082019050919050565b6000612632602e83612bba565b915061263d826131bb565b604082019050919050565b6000612655602083612bba565b91506126608261320a565b602082019050919050565b6000612678603183612bba565b915061268382613233565b604082019050919050565b600061269b602c83612bba565b91506126a682613282565b604082019050919050565b60006126be602083612bba565b91506126c9826132d1565b602082019050919050565b60006126e1602f83612bba565b91506126ec826132fa565b604082019050919050565b6000612704602183612bba565b915061270f82613349565b604082019050919050565b6000612727603183612bba565b915061273282613398565b604082019050919050565b600061274a601383612bba565b9150612755826133e7565b602082019050919050565b600061276d600f83612bba565b915061277882613410565b602082019050919050565b61278c81612cfb565b82525050565b600061279e8284612496565b915081905092915050565b60006127b58285612496565b91506127c18284612496565b91508190509392505050565b60006020820190506127e26000830184612406565b92915050565b60006080820190506127fd6000830187612406565b61280a6020830186612406565b6128176040830185612783565b81810360608301526128298184612424565b905095945050505050565b60006020820190506128496000830184612415565b92915050565b60006020820190508181036000830152612869818461245d565b905092915050565b6000602082019050818103600083015261288a816124c7565b9050919050565b600060208201905081810360008301526128aa816124ea565b9050919050565b600060208201905081810360008301526128ca8161250d565b9050919050565b600060208201905081810360008301526128ea81612530565b9050919050565b6000602082019050818103600083015261290a81612553565b9050919050565b6000602082019050818103600083015261292a81612576565b9050919050565b6000602082019050818103600083015261294a81612599565b9050919050565b6000602082019050818103600083015261296a816125bc565b9050919050565b6000602082019050818103600083015261298a816125df565b9050919050565b600060208201905081810360008301526129aa81612602565b9050919050565b600060208201905081810360008301526129ca81612625565b9050919050565b600060208201905081810360008301526129ea81612648565b9050919050565b60006020820190508181036000830152612a0a8161266b565b9050919050565b60006020820190508181036000830152612a2a8161268e565b9050919050565b60006020820190508181036000830152612a4a816126b1565b9050919050565b60006020820190508181036000830152612a6a816126d4565b9050919050565b60006020820190508181036000830152612a8a816126f7565b9050919050565b60006020820190508181036000830152612aaa8161271a565b9050919050565b60006020820190508181036000830152612aca8161273d565b9050919050565b60006020820190508181036000830152612aea81612760565b9050919050565b6000602082019050612b066000830184612783565b92915050565b6000612b16612b27565b9050612b228282612d79565b919050565b6000604051905090565b600067ffffffffffffffff821115612b4c57612b4b612eb1565b5b612b5582612ee0565b9050602081019050919050565b600067ffffffffffffffff821115612b7d57612b7c612eb1565b5b612b8682612ee0565b9050602081019050919050565b600081519050919050565b600081519050919050565b600082825260208201905092915050565b600082825260208201905092915050565b600081905092915050565b6000612be182612cfb565b9150612bec83612cfb565b9250827fffffffffffffffffffffffffffffffffffffffffffffffffffffffffffffffff03821115612c2157612c20612e24565b5b828201905092915050565b6000612c3782612cfb565b9150612c4283612cfb565b925082612c5257612c51612e53565b5b828204905092915050565b6000612c6882612cfb565b9150612c7383612cfb565b925082821015612c8657612c85612e24565b5b828203905092915050565b6000612c9c82612cdb565b9050919050565b60008115159050919050565b60007fffffffff0000000000000000000000000000000000000000000000000000000082169050919050565b600073ffffffffffffffffffffffffffffffffffffffff82169050919050565b6000819050919050565b82818337600083830152505050565b60005b83811015612d32578082015181840152602081019050612d17565b83811115612d41576000848401525b50505050565b60006002820490506001821680612d5f57607f821691505b60208210811415612d7357612d72612e82565b5b50919050565b612d8282612ee0565b810181811067ffffffffffffffff82111715612da157612da0612eb1565b5b80604052505050565b6000612db582612cfb565b91507fffffffffffffffffffffffffffffffffffffffffffffffffffffffffffffffff821415612de857612de7612e24565b5b600182019050919050565b6000612dfe82612cfb565b9150612e0983612cfb565b925082612e1957612e18612e53565b5b828206905092915050565b7f4e487b7100000000000000000000000000000000000000000000000000000000600052601160045260246000fd5b7f4e487b7100000000000000000000000000000000000000000000000000000000600052601260045260246000fd5b7f4e487b7100000000000000000000000000000000000000000000000000000000600052602260045260246000fd5b7f4e487b7100000000000000000000000000000000000000000000000000000000600052604160045260246000fd5b6000601f19601f8301169050919050565b7f4552433732313a207472616e7366657220746f206e6f6e20455243373231526560008201527f63656976657220696d706c656d656e7465720000000000000000000000000000602082015250565b7f4f776e61626c653a206e6577206f776e657220697320746865207a65726f206160008201527f6464726573730000000000000000000000000000000000000000000000000000602082015250565b7f4552433732313a207472616e736665722066726f6d20696e636f72726563742060008201527f6f776e6572000000000000000000000000000000000000000000000000000000602082015250565b7f4552433732313a20746f6b656e20616c7265616479206d696e74656400000000600082015250565b7f4552433732313a207472616e7366657220746f20746865207a65726f2061646460008201527f7265737300000000000000000000000000000000000000000000000000000000602082015250565b7f4552433732313a20617070726f766520746f2063616c6c657200000000000000600082015250565b7f4552433732313a206f70657261746f7220717565727920666f72206e6f6e657860008201527f697374656e7420746f6b656e0000000000000000000000000000000000000000602082015250565b7f4552433732313a20617070726f76652063616c6c6572206973206e6f74206f7760008201527f6e6572206e6f7220617070726f76656420666f7220616c6c0000000000000000602082015250565b7f4552433732313a2062616c616e636520717565727920666f7220746865207a6560008201527f726f206164647265737300000000000000000000000000000000000000000000602082015250565b7f4552433732313a206f776e657220717565727920666f72206e6f6e657869737460008201527f656e7420746f6b656e0000000000000000000000000000000000000000000000602082015250565b7f45524337323155524953746f726167653a2055524920736574206f66206e6f6e60008201527f6578697374656e7420746f6b656e000000000000000000000000000000000000602082015250565b7f4552433732313a206d696e7420746f20746865207a65726f2061646472657373600082015250565b7f45524337323155524953746f726167653a2055524920717565727920666f722060008201527f6e6f6e6578697374656e7420746f6b656e000000000000000000000000000000602082015250565b7f4552433732313a20617070726f76656420717565727920666f72206e6f6e657860008201527f697374656e7420746f6b656e0000000000000000000000000000000000000000602082015250565b7f4f776e61626c653a2063616c6c6572206973206e6f7420746865206f776e6572600082015250565b7f4552433732314d657461646174613a2055524920717565727920666f72206e6f60008201527f6e6578697374656e7420746f6b656e0000000000000000000000000000000000602082015250565b7f4552433732313a20617070726f76616c20746f2063757272656e74206f776e6560008201527f7200000000000000000000000000000000000000000000000000000000000000602082015250565b7f4552433732313a207472616e736665722063616c6c6572206973206e6f74206f60008201527f776e6572206e6f7220617070726f766564000000000000000000000000000000602082015250565b7f4e465420616c7265616479206d696e7465642100000000000000000000000000600082015250565b7f4e65656420746f20706179207570210000000000000000000000000000000000600082015250565b61344281612c91565b811461344d57600080fd5b50565b61345981612ca3565b811461346457600080fd5b50565b61347081612caf565b811461347b57600080fd5b50565b61348781612cfb565b811461349257600080fd5b5056fe697066733a2f2f516d5a756d684d4a34666a57426d53343458394c4e6167425032574544653170674c504745334d4a4b6d474e626aa26469706673582212203b8681f9a1ce070b9e47222743d7e26cbb35aff95786e525153705df566bf9a864736f6c63430008040033",
  "linkReferences": {},
  "deployedLinkReferences": {}
}